:020000040800F2
:1020000000040020392200083B2200083B2200087F
:102010003B2200083B2200083B2200083B2200082C
:102020003B2200083B2200083B220008F17D00080B
:102030003B2200083B2200083B2200089F8D00083D
:102040003B2200083B2200083B2200083B220008FC
:102050003B2200083B2200083B2200083B220008EC
:102060003B2200083B2200083B220008158C000898
:10207000298C00083D8C0008518C0008658C0008F4
:10208000798C00088D8C00083B2200083B22000858
:10209000ED8F00083B2200083B2200083B2200088D
:1020A0003B2200083B2200083B2200083B2200089C
:1020B0003B2200083B220008958F00083B220008C5
:1020C0003B2200083B2200083B2200083B2200087C
:1020D0003B2200083B2200083B2200083B2200086C
:1020E0003B2200083B2200083B2200083B2200085C
:1020F0003B2200083B2200083B2200083B2200084C
:102100003B2200083B2200083B2200083B2200083B
:102110003B2200083B2200083B2200083B2200082B
:102120003B2200083B2200083B2200083B2200081B
:102130003B2200083B2200083B2200083B2200080B
:102140003B2200083B2200083B2200083B220008FB
:102150003B2200083B2200083B2200083B220008EB
:1021600072B6264880F30888254880F309882548F8
:1021700025490860022080F31488BFF36F8F05F0B3
:102180008BFB04F0CDFF4FF0553020491B4A9142A4
:102190003CBF41F8040BFAE71D49194A91423CBF84
:1021A00041F8040BFAE71B491B4A1C4B9A423EBFFD
:1021B00051F8040B42F8040BF8E700201849194ABB
:1021C00091423CBF41F8040BFAE705F069FB05F0CA
:1021D00064FB154C154DAC4203DA54F8041B8847D8
:1021E000F9E701F0DDFF124C124DAC4203DA54F86E
:1021F000041B8847F9E705F051BB000000040020EC
:10220000000C00200020000808ED00E00000002085
:1022100000040020209E0008000C0020A00F0020D9
:10222000A00F0020A81C00206021000860210008E9
:10223000602100086021000892E700F000F8FEE746
:102240002DE9F04FC1F80CD0C3689D46BDE8F08F72
:10225000002383F311882846A047002005F006FDDF
:10226000FEE705F05DFC00DFFEE7000053B94AB968
:10227000002908BF00281CBF4FF0FF314FF0FF308E
:1022800000F00CB8ADF1080C6DE904CE07F079F957
:10229000DDF804E0DDE9022304B07047704700BFB9
:1022A000032A70B511D940EA01039B071ED10446E9
:1022B0000B4602E0043A032A1CD91946204653F87B
:1022C000045B54F8046BAE42F4D0541EAAB1421E13
:1022D000013901E0C3180BD012F801EF11F801CF5A
:1022E000A31AE645F6D0AEEB0C0070BD541EEEE727
:1022F000184670BD20461946E7E7104670BD00BF7E
:1023000070B5860747D0541E002A3ED00346CAB295
:1023100001E0013C39D303F8012B9D07F9D1032CCF
:102320002CD9CDB205EB05250F2C1A4605EB05453A
:1023300034D9A4F1100C2CF00F0603F1100EB644A2
:102340004FEA1C1C156055609560D56010327245CF
:10235000F8D10CF1010214F00C0F03EB021204F09F
:102360000F0C13D0ACF1040323F003030433134424
:1023700042F8045B9A42FBD10CF003042CB1C9B2C1
:102380001C4403F8011B9C42FBD170BD64461346FC
:10239000002CF4D1F9E703461446C0E7A446E1E770
:1023A000844641EA000313F0030349D1403A23D3A2
:1023B0000B6803604B6843608B688360CB68C360C5
:1023C0000B6903614B6943618B698361CB69C361AD
:1023D0000B6A03624B6A43628B6A8362CB6AC36295
:1023E0000B6B03634B6B43638B6B8363CB6BC3637D
:1023F00040304031403ADBD230320BD30B680360BF
:102400004B6843608B688360CB68C36010301031C9
:10241000103AF3D20C3205D351F8043B40F8043B98
:10242000043AF9D2043208D0D2071CBF11F8013B9C
:1024300000F8013B01D30B8803806046704700BF62
:10244000082A13D38B07B1D010F00303AED0C3F129
:102450000403D21ADB071CBF11F8013B00F8013B53
:10246000A4D331F8023B20F8023B9FE7043AD9D3CA
:10247000013A11F8013B00F8013BF9D20B780370E7
:102480004B7843708B7883706046704708B5B0B95D
:10249000164A136849B17F2B0CD00133002013601A
:1024A00019B203F0CFFA002008BD13F1800F04D059
:1024B000013BF3E76FF07F03F0E77F23EEE70128AE
:1024C000F1D10B4A136831B17F2B09D001330120C0
:1024D000136019B2E5E713F1800F04D0013BF6E772
:1024E0006FF07F03F3E77F23F1E700BFA40F002025
:1024F000A00F002002280DD802290BD8042A09D8E1
:10250000C0EB001001EB81010144034B0A4433F896
:1025100012007047012070472E980008FFF7EABFAD
:10252000012070470028024818BF0020704700BFF4
:102530003C0C0020012070470120704708B5FFF7D0
:10254000FBFF08BD01207047012070470120704744
:1025500008B5FFF7FBFF08BD7047704708B5FFF7E8
:10256000FCFF08BD012070477047704713B502ABF0
:1025700003E903000F4B1B78B3B99DF8053073B125
:102580006AB100F053FD04460146009800F01CFDBE
:102590002046009902B0BDE8104001F065BB0098EC
:1025A00000F02CFD0446F3E7009800F03FFD009991
:1025B000F0E700BFB00F0020034600890A4630B99B
:1025C0001988588841EA00409988FFF7CFBF7047C3
:1025D00010B504460121FFF7EFFF2146FFF7AAFFE0
:1025E00018B9002000F0010010BD01212046FFF7BE
:1025F000E3FF2146FFF7A2FF0028F2D00121204689
:10260000FFF7DAFF214603F0A3FDEBE738B5002121
:102610000446FFF7D1FF05462146FFF79DFF2146FF
:102620002846FFF79BFF38BD012303FA00F080B274
:1026300000F02DBC10B504460120A04080B201F08E
:1026400007F92046BDE81040FFF7EEBF01207047B4
:1026500008B5FFF7FBFF08BD10B5044600F0C0FB4E
:102660002046FFF77FFF2046FFF7F2FFBDE810404E
:1026700046F2A81005F0FFBA08B50120FFF7ECFFFD
:10268000BDE8084004F04CBB08B50020FFF7E4FFAC
:10269000BDE8084004F048BB38B501210546FFF706
:1026A0008BFF29460446FFF74FFF00284CD02946F0
:1026B0002046FFF74DFF002846D02946204604F06B
:1026C00025F8002840D02946204603F0ABFED8B3B9
:1026D0002946204603F080FEB0B32946204602F08A
:1026E00039F988B32946204602F07CF960B32946BF
:1026F000204603F040F938B32946204601F0B8FBE4
:1027000010B36B797BB147F65A439C4223D00ED865
:1027100047F601439C421BD047F603439C4215D029
:10272000B4F5F84F0ED02846FFF70CFF0DE047F642
:102730005B439C4212D047F65C439C42F3D101F0CC
:102740003FF8F0E7FFF798FF002038BD01F078F878
:10275000FFF79AFFF8E701F03FF8E4E701F03FF8F0
:10276000E1E708B5FFF700FF04F017FA02F0BEFE3C
:1027700000F038F8BDE80840012002F079BF08B544
:1027800000F035F8002002F073FFFFF7EEFEBDE821
:10279000084004F007BA030A0ABF034608200020D5
:1027A0001A091EBF13460430C0B29A081EBF134652
:1027B0000230C0B25B081CBF0130C0B270470120BC
:1027C0007047704738B50546FFF7F9FF044610B16A
:1027D0002846FFF7F6FF204638BD704708B5FFF7DB
:1027E000F1FF08BD08B50020FFF7F8FF08BD08B5E8
:1027F00003F0E8FFFFF7F2FF08BD000010B503F09B
:10280000E1FF074B04461A78824207D0187004F0A3
:1028100039FA044B18602046FFF7E0FF10BD00BFF7
:10282000A80F0020AC0F002010B586B06C4684E8DD
:1028300003009DF805300BB100F0BEFE0023ADF89B
:102840001230ADF8143094E80300ADF81010C9B29E
:10285000039003AC29B994E8070000F005FE06B028
:1028600010BD2046FFF7B4FE0028F4D1F7E7037946
:10287000012B02D1008800F0FBBB704710B5044665
:10288000A8B3031FDBB2A02B0ED804F037F820B199
:10289000204604F0C1F800F027FF204604F09EF81F
:1028A000BDE8104000F020BF00F12003DBB2072B91
:1028B00007D800F007040120A040C0B200F056FE87
:1028C000EEE700F15B03DBB2022B05D8BDE8104058
:1028D000243880B203F096BF5834E4B21A2C06D8DC
:1028E000034B33F81400BDE8104003F0A7BF10BD40
:1028F0008898000808B5034648B3021FD2B2A02A40
:1029000005D804F089F8BDE8084000F0EDBE00F1FC
:102910002002D2B2072A07D800F00703012098400E
:10292000C0B200F02BFEEEE700F15B02D2B2022A49
:1029300004D8BDE80840002003F064BF5833DBB280
:102940001A2B04D8BDE80840002003F077BF08BD6B
:1029500038B50C460546FFF791FF94B140F2E733D6
:1029600009494FF47A72A4FB0141E01841F10001DA
:102970000023FFF77BFC05F07EF92846FFF7BAFF3E
:1029800038BD0120F7E700BFA086010008B539284F
:102990000CBF50210021FFF7DBFF08BD08B528B1AF
:1029A00000F0E4FDBDE8084000F09EBE08BD08B59B
:1029B00028B100F0E3FDBDE8084000F095BE08BD79
:1029C0002DE9F843877981460C46457900F0BEFD34
:1029D0003F09064608B32E46FDB1C4F3072303F0B2
:1029E000F002402A0CD0E1B201F12002D2B2072A53
:1029F00025D903F0E003202B02D101291FD907B309
:102A0000A54B5E7816F0040607D0022000F0A8FE61
:102A100000F09CFD80F00106F6B2C4F303330B2BEB
:102A20003DD8DFE813F01000100054005400AE0051
:102A30003C003C003C00C50027013B013B01002657
:102A4000EBE73E46E9E7C4F30723C4F303270F2B64
:102A500088BF3F01E4B285B157B104F12003DBB276
:102A6000072B384600D92CB900F080FD00F03CFE61
:102A700020464CE000F090FDF8E72046FFF73AFFD3
:102A80006FB104F12003DBB2072B384600D914B92B
:102A900000F074FD01E000F087FD00F025FE002E3F
:102AA00000F0528100F04AFD10F0010040F04C812E
:102AB00089F8050000F03CFD00F01EFA484600F0E1
:102AC0005DF900F035FDBDE8F84300F021BAC4F32C
:102AD000072303F0F003C4F30328202BE4B218BF4C
:102AE0004FEA08182CB1012C34D0002D3CD0DFB1B6
:102AF000BEE7694B5B78580714D45DB1B8F1000F9D
:102B000004D0404600F032FD00F0EEFD0020FFF75B
:102B1000B5FEC4E72846FFF7EDFEB8F1000FBED0C2
:102B20004046B5E755B11FB94046FFF737FFB6E756
:102B3000012FB4D1404600F05FFDB0E7002FAED1C9
:102B40004046FFF734FF404600F064FD404600F089
:102B50003FFDA4E715B1052FA1D8E5E7042F9ED8C6
:102B60004046FFF724FF9AE7002FF9D0392C0CBF1D
:102B70004FF4FA50012005F07EF82046FFF7BAFE28
:102B80008DE714F4406FC4F3812307D0012B86D165
:102B900065B1C4F3090003F051FE80E725B1C4F329
:102BA000090003F02FFE7AE72846FAE72846F2E705
:102BB00014F4407F2DD1EDB9E10648BF0F25C4F3D1
:102BC00042134FEA8303DBB244BF9D40ED4304F060
:102BD0000F0202FA03F2C4F3812448BFADB292B2ED
:102BE000022C45EA02000ED0032C0FD0012C07D096
:102BF00000F058F903F0E6FDBDE8F843FFF7EEBD3D
:102C000000F048F9F6E700F055F9F3E700F03FF976
:102C1000F0E7C4F301220DB3D207EBD514F0100096
:102C200018BF0F20C4F342134FEA8303DBB21CBF6B
:102C30009840C04304F00F0202FA03F2C4F3812467
:102C400018BF80B292B2022C40EA02000CD0032CD2
:102C50000DD0012C05D000F079F9CBE7012AC9D9B4
:102C6000DCE700F06BF9C5E700F078F9C2E700F0A7
:102C70002FF9BFE7E6B2C4F3032435B1204600F0D4
:102C80003BF93046FFF78AFEB4E73046FFF78FFE88
:102C9000204600F03DF9ADE7EC1A0020E6B2A6F1BF
:102CA000F003042B38D8DFE803F003210D141D00D6
:102CB00035B1042F9ED8C4F3042000F033F999E70E
:102CC000052FF7E7C4F30420002DE2D100F014F93A
:102CD00090E725B1C4F3042000F007F98AE700F07B
:102CE00001F987E7194B5B785B0704D4C4F3042030
:102CF000002DCED0EAE72DB10321C4F3042000F06B
:102D00000DFD77E7012000F02BFD012F7FF672AF5C
:102D1000022000F025FD6DE73DB11FB13046FFF701
:102D2000ADFD67E7C4F30420D0E757B1392E0CBFDF
:102D30004FF4FA50012004F09EFF3046FFF7DAFD11
:102D400058E7C4F30420A4E7BDE8F883EC1A002098
:102D500038B50446008960B100F0A8FE054600F0D1
:102D600005F900F093F829462046BDE83840FFF702
:102D700027BE2188607900F087F9EFE7037910B565
:102D80000446B3B1FFF788FC68B900F0DFFB80B1FF
:102D9000637973B1074B5B785B070AD5BDE81040D8
:102DA000022000F0DDBC2046FFF7D2FF2046FFF7EF
:102DB0002DFC10BDEC1A002008B5002003F022FD08
:102DC000002003F03BFD00F0F7FBBDE8084000F0F9
:102DD0008BBC08B503F03EFEBDE80840FFF7ECBF32
:102DE00008B500F0D3FBBDE80840FFF7F2BFC0F321
:102DF0000333062BC2B213D094BF0E33063303F055
:102E00000F03012B10D8F02A10D004D8E72A8CBF6A
:102E1000002001207047F42A14BF002001207047D1
:102E2000E72A03D9F12AF7E700207047012070470D
:102E300008B50346007958B1188928B100F036FE6C
:102E4000BDE80840FFF7D3BF188800F011F9F7E795
:102E500008BD82B002AB03E9030002B0704784B042
:102E600004AB03E9070004B07047704708B5FFF7EB
:102E7000FCFF08BD7047000008B5FFF7FBFFFFF738
:102E8000F5FF014B188008BDBC0F00207047FFF70D
:102E9000F3BF0000024B1B881843FFF7EDBF00BFD4
:102EA000BC0F0020024B1B881840FFF7E5BF00BF96
:102EB000BC0F0020024B1B885840FFF7DDBF00BF4E
:102EC000BC0F0020704708B5FFF7FCFF08BD704736
:102ED00008B5FFF7FCFFFFF7F6FF014B188008BDB0
:102EE000BA0F00200020FFF7F3BF012303FA00F020
:102EF00080B2FFF7EDBF0000012303FA00F0034B9F
:102F00001B88184380B2FFF7E3BF00BFBA0F002051
:102F10000123034A8340108820EA0300FFF7D8BF4B
:102F2000BA0F0020012303FA00F0034B1B8858401E
:102F300080B2FFF7CDBF00BFBA0F0020024B1B8845
:102F40001843FFF7C5BF00BFBA0F0020024B1B8814
:102F50001840FFF7BDBF00BFBA0F0020024B1B880F
:102F60005840FFF7B5BF00BFBA0F0020704730B51B
:102F7000012401F00703C90802EB810200219C40F3
:102F8000E4B2013A12F8015F20FA01F343F30003BF
:102F90006B40234001315D4004291570F2D130BDF2
:102FA000002210B500F00704C00801EB80011046B4
:102FB0008B5CE34003F00103934001321843042A81
:102FC000C0B2F5D110BD000017B40C46C0F3072104
:102FD0000229ADF804000CD89DF80430042B08D861
:102FE000204603EB8103044A194403B010BCFFF7E9
:102FF000BEBF03B010BC7047B10F002082B0ADF867
:103000000400C0F3072002280AD89DF80430042BDE
:1030100006D8054900EB8000184402B0FFF7C0BF96
:10302000002002B0704700BFB10F002073B50F241D
:103030000D4BADF804001D880C4B1B881D43ADB231
:1030400045FA04F3DB0705D4013CF9D200263046EB
:1030500002B070BDE6B23046019900F016FE80B2B3
:103060000128F1D0F3E700BFBA0F0020BC0F002009
:1030700007B5ADF804000198FFF7D8FF019903B038
:103080005DF804EB00F001BE13B5104BADF8041071
:103090001B782BB1019802B0BDE81040FFF7E8BFE4
:1030A00070B10198FFF7C2FF044601460198FFF78F
:1030B0008BFF2046019902B0BDE8104000F0E5BD4D
:1030C0000198FFF79BFF0446F3E700BFB00F002015
:1030D000F8B50A270D4B0E4E1C780E4D3378A342DF
:1030E00000D1F8BD07FB04F2AB18A85AB3F802C030
:1030F0009A88D98840EA0C4042EA014101341A8991
:10310000FFF7ADFE04F00704E8E700BFBE0F0020A4
:10311000BF0F0020C00F0020064B10B49A885C88B7
:103120001888D98840EA044042EA014110BC1A8953
:10313000FFF795BE101000201C49F8B58B790F2BB6
:103140000CD84B7953B14FF00A0C194B194A1B7824
:1031500015780E884F88184CAB4200D1F8BD0CFB97
:1031600003F2101990F804E0BEF1000F19D0A25A32
:10317000B24216D14279A2B94288D21B92B2C72A72
:103180000FD801228B7962F307138B71837962F375
:10319000071383710548FFF7F1FDBDE8F840FFF71D
:1031A00097BF013303F00703D6E700BF10100020DC
:1031B000BE0F0020BF0F0020C00F00204FF00A0CF0
:1031C000F0B50E4B0E4C1B7827780E4CBB4201D14C
:1031D0000020F0BD0CFB03F6A51995F801E08E4523
:1031E00005D1A65D864202D16D79954203D10133A6
:1031F00003F00703EAE70120EBE700BFBE0F002062
:10320000BF0F0020C00F00202DE9F047044686B014
:10321000944D0DF10409014606224846FFF7C0F817
:103220002B7994F8008061786779B4F802A022794C
:10323000C3B9002A00F0D680002F00F00981204693
:10324000FFF7F6FD002800F003810A2221462846F8
:10325000FFF7A6F82846FFF70AFBFFF76DFFFFF719
:103260005BFFBFE06B886E79AAEB03039BB2002E75
:1032700000F0BA80C72B00F28F80002A00F0B280E5
:10328000AB7928880F2B228852D8904215D12889F3
:103290002289904211D1002F45D1012262F30713F8
:1032A000AB71FFF739FF2846FFF768FDAB79A371D3
:1032B0000025284606B0BDE8F087A7BB3A46404641
:1032C000FFF77CFF4046FFF779FF05460028EFD166
:1032D0000198FFF7CDFEC0F30332032AC3B208D82A
:1032E000012A10D910F4706F12D0A2790F2A0FD8CA
:1032F000DFE7063202F00F02012A0ED92046FFF75F
:103300003DFD3546D5E710F4706F01D0002BD0D0CD
:103310002033DBB2072BCCD9F0E7EF2BC9D90F3321
:10332000DBB2022BF7E7AB7943F00103AB71BFE7E8
:1033300090420ED12989228991420AD14FB9204663
:10334000A371FFF71BFD0A2221462846FFF728F844
:1033500085E72046FFF76CFD002879D0002F77D055
:10336000AB791F2B12D92A888DF81230ADF80C20BA
:103370002A792B898DF81020002203A8ADF80EA021
:103380008DF81120ADF81430FFF7F8FC0A22214621
:103390003448FFF705F860E7AB790F2B0ED899E8B2
:1033A0000300FFF756FD2846FFF7E8FC0A2200213C
:1033B0002846FEF7A5FFFFF7AFFE79E792B129880F
:1033C00022889142C5D1298922899142C1D1002FF9
:1033D000BFD12046A371FFF7D1FC0A223946284607
:1033E000FEF78EFF012564E7C72B35D8002AF9D0F8
:1033F00077B32A8823889A4221D12A8923899A423D
:103400001DD1AB79DA0714D40F2B12D9A37103F0B5
:10341000F003F02B06D0A379C3F30312013262F359
:103420000713A3712046FFF7A9FC0A2221460D4885
:103430008CE70A2221460B48FEF7B2FFD2E720466E
:10344000FFF7F6FC0028A1D1AB7943F00103AB7183
:103450002046FFF793FCC5E799E80300FFF7F9FC66
:10346000A4E700BF10100020F0B589B001AC84E8DB
:1034700007002046FFF7C8FE294F0646294D70B1C8
:103480009DF808301BB194E80700FFF7E8FC0A2418
:10349000254E28783B78834226D109B0F0BD05AB94
:1034A00094E8070003C39DF808101A803B782A7837
:1034B0000029ECD05C1C04F0070494420AD00A22D4
:1034C000194805A902FB0300FEF76AFF3C70FFF7ED
:1034D000FFFDDCE7FFF784FC0A22314613483E700B
:1034E0002E70FEF70DFFD2E704FB0060FFF78CFEA5
:1034F0000028D2D02A786243B318B05AB3F802C079
:103500009A88D98840EA0C4042EA01411A89FFF7BB
:10351000A6FC2B78013303F007032B70B9E700BF3B
:10352000BF0F0020BE0F0020C00F00201010002091
:10353000014B1878C008704742100020024B1878E1
:1035400000F00700704700BF42100020034B1878BE
:1035500010F0070018BF0120704700BF4210002084
:10356000014B1878704700BF6E100020024B1A788C
:1035700010431870704700BF6E100020024A137885
:1035800023EA0003137070476E1000200022014BE5
:103590001A7070476E100020024B1A781043187092
:1035A000704700BF6D100020024A137823EA000321
:1035B000137070476D1000200022014B1A70704785
:1035C0006D100020704708B5FFF7FCFF08BD000034
:1035D00008B5054A1378034204D023EA00001070AE
:1035E000FFF7F1FF08BD00BF43100020704708B58A
:1035F000FFF7FCFF08BD000010B505490B7830EA65
:10360000030403D003430B70FFF7F1FF10BD00BFAD
:103610004410002008B5054A1378034204D023EA79
:1036200000001070FFF7E3FF08BD00BF441000204A
:1036300008B5044B1A781AB100201870FFF7D7FFAD
:1036400008BD00BF4410002010B5084B1C78084B83
:103650001B781C43074B1B782BB11C4303F028F944
:1036600008B1FFF7E5FF204610BD00BF6E10002037
:103670006D1000204410002038B50B4C2568FFF772
:10368000E3FF28702468082220460849FEF708FE58
:1036900048B1214608220548FEF782FE2046BDE8D3
:1036A000384003F099B838BD4C0C00203A10002087
:1036B00038B50B4C2568FFF7C7FF687024682022D7
:1036C00020460849FEF7ECFD48B121462022054876
:1036D000FEF766FE2046BDE8384003F087B838BDE7
:1036E000480C00201A10002008B503F063F840B120
:1036F000064B93F90030002B03DABDE80840FFF7D2
:10370000D7BFBDE80840FFF7B7BF00BFEC1A0020E5
:10371000704708B5FFF7FCFF08BD0000094A10B567
:10372000527852070AD5084C41EAC0012170FFF7D0
:10373000E3FB2078C008FFF7ECFF10BDBDE81040A8
:10374000FFF7DABBEC1A002042100020002008B579
:10375000024B1870FFF7DDFF08BD00BF42100020CC
:1037600008B50A4A137823EA0000107042070CD10A
:1037700098420AD0064B5B785B0706D5C008FFF776
:10378000C7FBBDE80840FFF7E1BF08BD42100020BD
:10379000EC1A00200246094808B54378C3F38001BB
:1037A000914209D062F38203437000F055F8BDE8FE
:1037B00008400220FFF7D4BF08BD00BFEC1A00206C
:1037C000044B5878C0F3800080F0010000F0010045
:1037D000FFF7E0BFEC1A00200120FFF7DBBF00205D
:1037E000FFF7D8BF002000F09BBB08B5002000F019
:1037F00093FBFFF7F7FF08BD07B500F049FB00F0AA
:1038000054FB002368468DF8003000F065FB012072
:10381000094B188000F069FB4FF4A05301A8ADF8E4
:10382000043000F06DFB01F069FAFFF7DEFF01F0F4
:1038300059FA03B05DF804FBBC0F0020FFF7DCBFB2
:1038400000F038BB00F027BB00F03FBB00F048BBE6
:1038500000F04BBB00F04DBB00F052BB00F054BB7E
:1038600000F056BB00F060BB73B503F041FA0B4D9E
:1038700004462B8883420ED00026ADF8006003F08A
:1038800037FAADF80460ADF8020002AB13E90300AB
:10389000FEF7CAFF2C8002B070BD00BF7010002080
:1038A00008B503F0EFF9024B1860024B186008BD31
:1038B000801000207C10002008B503F0E3F9024BD3
:1038C0001860024B186008BD80100020781000209E
:1038D0007047704708B5FFF7FCFF08BD704708B593
:1038E000FFF7FCFFFFF7F6FF08BD704708B5FFF7CD
:1038F000FCFF08BD704708B5FFF7FCFFFFF7F6FFB8
:1039000008BD01207047000008B5054800F012FB13
:1039100000F0EEFCFFF7DCFFBDE80840FFF7DFBF7B
:103920006D3E00080120704708B5FFF7FBFF08BD9A
:1039300070477047704708B5FFF7FAFFFFF7F9FFC8
:10394000FFF7F8FF08BD000008B5FFF77BFF08B9D7
:10395000FFF774FF0848FFF777FF0848FFF77AFF83
:1039600002F096FAFFF772FFFFF791FA044B1888FE
:10397000BDE80840FFF7A7BA84100020EC1A002029
:10398000BA0F002008B503F07BF902F08DF800F0C3
:1039900087FBFFF7D9FFFEF720FF01F03BFE02F0A7
:1039A0007DF8BDE80840FFF7A6BF00002DE9F04F05
:1039B00085B0FFF7A6FF88B9FFF756FF02F07CFB42
:1039C00001F094FD02F0D6F808B1FFF775FF02F0A0
:1039D00067F805B0BDE8F04FFEF710BF314C00F0BE
:1039E00077FB0020257800F0B5FA85420BD1012045
:1039F000657800F0AFFA854205D10220A47800F086
:103A0000A9FA8442D8D0284B1B789B0701D500F037
:103A1000A7FAFFF789FF0027DFF8888001905FFA97
:103A200087F9484600F096FA18F8016B0546B0424F
:103A300032D000244FF0010A4640F6B216EA0A0FCF
:103A400020D0019B15EA0A0F14BF4FF0010B4FF075
:103A5000000B93B18DF808408DF8099003F048F9F8
:103A60004FF00103ADF80A008DF80C308DF80DB061
:103A700002AB93E80300FEF7D7FE5A4621464846BC
:103A800001F0CAF90134E4B24FEA4A03052C5FFAA7
:103A900083FAD3D108F8015C0137032FBFD1FFF7B8
:103AA000FFFE8BE7721000208410002038B500F074
:103AB000F7F8B0F5A44F044643D2B0F5A04F80F01C
:103AC000AE80DF2816D8CC2800F28C80A7280AD830
:103AD000A42879D8012804D0031F9BB2A12B28BFAA
:103AE0000024204638BDA0F1A8039BB21A2B71D93F
:103AF0000024F6E7B0F5804F19D2B0F5005F80F0F2
:103B0000A180E728EDD9A0F580739BB2B3F5F85FEB
:103B1000EED2C0F3072000F047F90546E0B200F00E
:103B2000BFF82D0205F4F85540EA050450E0C0B294
:103B300000F0B6F804F47064204340F4204084B2EE
:103B4000CFE7B0F5A54F22D245F25F23984253D874
:103B500045F23F2398420FD845F21F23984244D89C
:103B6000012300F00304C0F38502A34043EA42139B
:103B700043F40D439CB2B4E7012300F00304C0F307
:103B80008202A34043EA421343F40C43F2E745F2B6
:103B9000BF2398420AD845F29F23984200F01F00A5
:103BA00035D84AF2F40343EA00249AE7A0F5A54386
:103BB000403B9BB21F2B9BD8040204F4F85444F4FE
:103BC000204444F0F0048CE7A0F1240444F4804441
:103BD000A4B286E7234B5834E4B233F8144044F4DB
:103BE00088447EE740F4A044F2E74AF2F10300F093
:103BF0001F0443EA042474E7012300F00304C0F324
:103C00008202A34043EA421343F40A43B2E700F0BE
:103C1000CBF8040204F4F85444F4005461E700F0D3
:103C20001F0000F0C1F8C30648BF0001C4F34314ED
:103C30004FEA04244CBF00F0F00000B2044344F407
:103C40001044C5E7C0F3042000F0AEF80546E0B22A
:103C500000F026F82D0205F4F855054345F400550B
:103C6000ACB23EE7BE98000882B0ADF80410C1F3D4
:103C70000721022906D89DF80420042A02D802B0A0
:103C8000FEF74CBC002002B0704707B5ADF8041039
:103C90000199FFF7E9FF03B05DF804EBFFF706BFFA
:103CA000E7284FD8DF2807D8312864D00ED8292834
:103CB00057D02A2866D07047A0F1E003072B41D8DF
:103CC000DFE803F01540232831403C41392804D077
:103CD000822802D035283FD07047324B1A7892079D
:103CE0001FD15B7813F0080F18BF292070472D4AA9
:103CF0001378D9074DD4527812F0010F22D013F067
:103D0000100F14BF0020E3207047264B1B7813F0E0
:103D1000040FF3E7234A137859073CD45278D207AB
:103D2000EDD5E02070471F4B5A7891070AD51B78D4
:103D300013F0100F14BF0020E7207047194B1B78B9
:103D40001A07F5D47047174A1378190725D4527803
:103D50009107EDD5E4207047124B1B7813F0200F2C
:103D6000C2E7104B1A78920619D45B7813F0080F4B
:103D700018BF392070470B4B1B7813F0400F18BF4A
:103D80002A207047074B1B7813F0400F18BF3120D3
:103D9000704739207047E2207047E6207047352091
:103DA000D0E700BFEC1A002010B52F4C21784B074C
:103DB00013D500F01402A2F1040C00F01803DCF19A
:103DC000000242EB0C02A3F1080CDCF1000343EB10
:103DD0000C039A4218BF80F00C000B0713D500F0BB
:103DE0001402A2F1140C00F01803DCF1000242EB03
:103DF0000C02A3F1180CDCF1000343EB0C039A4214
:103E000018BF80F00C006478E30713D500F01102AE
:103E100002F1FF3C00F01803DCF1000242EB0C025F
:103E2000A3F1080CDCF1000343EB0C039A4218BF2A
:103E300080F00900A30711D500F0110200F018036B
:103E4000A2F111046242A3F1180C6241DCF10003FB
:103E500043EB0C039A4218BF80F00900CB0648BF21
:103E600000F0E70010BD00BFEC1A002000207047F2
:103E7000A0F5A543603B1F2B10B507D84C791CB9A2
:103E800000F01F00FEF7D6FB204610BD0124FBE723
:103E9000002000F02FBA08B5002000F0A6F94FF678
:103EA000E363C31A5842584108BD4FF6E36100204E
:103EB00000F002BA08B5002000F01CFABDE8084086
:103EC0004FF6FF71002000F0F7B910B5044602204C
:103ED00000F07CF9207010BD0178022000F0DEB9FE
:103EE00008B5032000F072F908BDC1B2032000F04C
:103EF000D5B910B50446042000F077F9208010BD34
:103F00000188042000F0D8B90822172100F0F4B984
:103F10000822172100F0A8B901460F2000F0DAB9F5
:103F20000146132000F0D6B901460E2000F0B6B9C4
:103F300000207047014B1860704700BF500C0020F4
:103F4000704708B5FFF7FCFF08BD704708B5FFF7DD
:103F5000FCFF08BD014B185C704700BFF11A002040
:103F600070474FF4076003F0FFBC00BF00BF00BF05
:103F700000BF00BF00BF00BF00BF00BF00BF00BF49
:103F800000BF00BF00BF00BF00BF00BF00BF704741
:103F900008B5FFF7E6FF08BD08B5302383F31188A5
:103FA000012100F00F039940032220F00F0004F0DC
:103FB000ADFE002383F3118808BD000038B50B481F
:103FC000FFF7EAFF0A48FFF7E7FF0A48FFF7E4FFB9
:103FD0000524094D55F8040B431C01D0FFF7DCFF05
:103FE000013C14F0FF04F5D138BD00BF06080140C4
:103FF00007080140000C0140F49800082DE9F8433F
:10400000254F064657F821400D46631C3FD030220D
:1040100082F311884FF0010824F00F0904F00F0417
:1040200008FA04F421460622484604F06FFEC9F857
:104030001440002484F31188FFF797FF05224346BC
:10404000DFF858C05CF8041B481C22D021F00F0098
:10405000806801F00F0120FA01F111F0010F0CBF8F
:1040600019460021013A21435B0012F0FF02CCB255
:10407000DBB2E7D157F82500431C01D0FFF78CFFD6
:10408000211E18BF01212846FFF782FF7455BDE8A5
:10409000F8830021E6E700BF08990008F4980008BB
:1040A00008B5FFF78BFF0023074A032013705370F6
:1040B0009370064A13705370937000F039F8BDE89E
:1040C0000840FFF73EBF00BFF11A0020EE1A0020A3
:1040D00013B5002101A8ADF804108DF80610FFF704
:1040E0008DFF012101A8FFF789FF022101A8FFF739
:1040F00085FF03220C4801A9FEF7D2F8002814BF5F
:104100000124002404D00322074801A9FEF748F93E
:10411000234603220549044800F00CF80446FFF743
:1041200015FF204602B010BDEE1A0020F11A002043
:10413000704700002DE9F84306460D4617461C4619
:10414000DFF850804BB1012388F8003002F09AFD6F
:10415000114B18600020BDE8F88398F80090B9F181
:10416000000FF7D00C4B186802F039FD0428F1D984
:104170003A4631462846FEF793F828B13A4631468A
:104180002846FEF70DF94C460023204688F80030FB
:10419000E1E700BF8C10002088100020FFF706BC6C
:1041A00008B502F033FD02F0C9FFFFF7ADFB02F0E6
:1041B000C7FFFFF7E7FB02F0D1FF02F0D5FFFFF7E3
:1041C000EDFF02F0EDFFFFF7B6FBF6E7002307B5C2
:1041D000014601220DF107008DF8073000F08CF840
:1041E0009DF8070003B05DF804FB002307B5014606
:1041F00002220DF10600ADF8063000F07DF8BDF8A2
:10420000060003B05DF804FB07B504220023014655
:104210000DEB0200019300F06FF8019803B05DF818
:1042200004FB07B501228DF8071001460DF10700C8
:1042300000F067F803B05DF804FB07B50222ADF8A3
:10424000061001460DF1060000F05BF803B05DF8C2
:1042500004FB07B50422019101460DEB020000F0BA
:1042600050F803B05DF804FBF8B505461446D31DBD
:1042700023F0070300AFADEB030D68460E4600F0D8
:104280003BF8224669462846FEF70AF820B1224646
:104290003146284600F035F8BD46F8BD38B50C4625
:1042A0000546FFF793FFA04205D021462846BDE80A
:1042B0003840FFF7B6BF38BD38B50C460546FFF7A6
:1042C00094FFA04205D021462846BDE83840FFF7BC
:1042D000B4BF38BD38B50C460546FFF795FFA04280
:1042E00005D021462846BDE83840FFF7B2BF38BDAB
:1042F00000F09EB900F03CB80B460146184600F0AD
:1043000051B80B460146184600F0DCB808B5064B1C
:104310004FF4806200211846FDF7F2FF4FF48162EE
:10432000C0F8002408BD00BF9010002010B5064C56
:1043300094F8043433B900F039FA10B1012084F84C
:10434000040410BD0220FCE79010002010B5074CBB
:1043500094F804343BB100F077FA18B1002301203F
:1043600084F8043410BD0220FCE700BF9010002048
:1043700038B5FFF7DBFF044618B9FFF7E7FF204623
:1043800038BD00F01FFA0546FFF7C0FF012C06D12B
:10439000FFF7DCFF00280CBF002505F001052C46C7
:1043A000EDE7000008B5034608469918B1F5806F9F
:1043B00005D804491944FDF7F3FF012008BD00208A
:1043C000FCE700BF90100020F8B506460F461546E2
:1043D0000024AC4201D10120F8BD07EB440106EBFB
:1043E000440000F08DFA0028F6D00134F1E7F8B56A
:1043F00006460F4615460024AC4201D10120F8BD07
:1044000037F8141006EB440000F0FEF90028F6D04F
:104410000134F1E70000000073B500F0D3F9044661
:1044200028B3FFF783FF4FF40072054614490020BC
:10443000FFF7DDFF124E044688B10FA3D3E9002336
:104440004FF48061304601F05EFA0422CDE90001AC
:1044500069464FF48060FFF7CAFF4400E4B2012DC3
:1044600001D1FFF773FF4FF48163C6F80034204693
:1044700002B070BDAFF3008025232284E49CF2CB10
:1044800090100020044BD3F80034B3F5006F01D333
:10449000FFF7C2BF012070479010002010B5084CF4
:1044A0000146D4F8000400F0AFF940B1D4F800346C
:1044B0000233C4F80034BDE81040FFF7E3BF10BD7D
:1044C000901000208318B3F5806F2DE9F74F8346D5
:1044D0008846154620D8544C044421464046FDF7F2
:1044E000DFFE002800F09E802A4641462046FDF768
:1044F00057FFFFF71BFF814660B10026002785B9F3
:10450000FFF7C0FF0446B9F1010F06D1FFF71EFF08
:1045100010B102E0FFF71AFF0024204603B0BDE807
:10452000F08F012D98F8000026D01BF0010F23D149
:10453000BBF5804F33D298F8013040EA0323012BBA
:104540001AD8002B0CBF6FF07F036FF05F030020C1
:1045500043EA5B2363F307004FEA5B0363F30F2037
:1045600080B2FFF79BFF0128044656D1023D0BF1B4
:10457000020B08F10208C2E7BBF13F0F0FD84BF066
:104580004003DBB243EA0020FFF788FF012804461E
:1045900043D1013D0BF1010B08F10108AFE7052DF7
:1045A000AA4628BF4FF0050ACBF3024343EACA03E9
:1045B000CDE90067524641468DF800300DF1030009
:1045C0004FEA1B238DF801308DF802B0FDF7E8FEAD
:1045D000BDF80000FFF762FF012804461DD1BDF8B9
:1045E0000200FFF75BFF0128044616D1012D0FD012
:1045F000BDF80400FFF752FF012804460DD1032D3A
:1046000006D9BDF80600FFF749FF0128044604D18A
:10461000A5EB0A05D344D04471E714F0FD0F18BF91
:10462000002470E7012478E79010002000000000CB
:104630002DE9FF47FFF76AFE00F00EF930B9FFF7EA
:1046400065FE0024204604B0BDE8F0874FF40072F8
:1046500000205549FFF7B8FE534D00287FD050A3E6
:10466000D3E900234FF48061284601F04CF9064657
:104670000C4604224FF4806002A9FFF7A5FEDDE995
:1046800002239C4208BF964201D0FFF73FFE4FF441
:104690008167002638460DF1060100F031F9002847
:1046A00051D0BDF80630002B4CD0C3F38111012945
:1046B00007F10204ADF80830DAB253D0022957D01E
:1046C000002967D120460DF10A0100F019F90028F0
:1046D00060D09DF809309DF80A109DF8082043EA43
:1046E00001234FEA02485BBA9BB208F4E02848EA8B
:1046F0000308C2F3C20908EB0903B3F5806F07F1A1
:1047000004044FEAD20A45D812F0300F05D02046F3
:1047100003A900F0F5F8E8B3BC1D1AF0040F06D0A9
:1047200020460DF10E0100F0EBF898B302344A4632
:104730000DF10B0105EB0800FDF732FEB4F5006F3B
:104740002746A7D30120C5F8007400BBFFF764FE1D
:10475000044600287FF476AFFFF7D8FD72E7FFF735
:10476000D5FD6CE702F03F02C3F30723AB54E5E746
:10477000510201F478511B0A41EA4303591CB1F577
:10478000806F07D2C2F34012EA546E54D6E7FFF7A7
:1047900079FEDDE727460020D5E700BFAFF30080B4
:1047A00025232284E49CF2CB90100020002108B540
:1047B000034803F0A9FCB0FA80F0400908BD00BF2F
:1047C000E01B0020F8B5002501240C4F0C4E3B687F
:1047D000AB4201D82046F8BD30680A4B196803681F
:1047E00029445B6998470128306888BF002403F09A
:1047F00031FC012888BF00240135E8E7540C002073
:104800009C140020580C002013B50C4A0B46ADF840
:10481000061011680A4A0144127812B1DB43ADF860
:104820000630084B022218680368DC680DF10603A5
:10483000A047B0FA80F0400902B010BD5C0C002027
:104840009A1400209C14002008B5024803F06AFC6A
:10485000012008BDE01B00202DE9F8431F4B204E2E
:104860003360FFF7F1FF306803685B6898471D4BC2
:104870000446D3F8E0271C4B03EA822803781B4A3E
:1048800003F001031370836813B9194803F046F865
:104890000025A946A468174FAC421BD9611E491BCD
:1048A0003068396003F0F4FB404502D33C680135C1
:1048B000F2E73968306803F0F8FB8144B9F5006F1E
:1048C000F5D339680C4B641A30681C6003F0E0FBC8
:1048D0000A4B18600120BDE8F88300BFE01B0020F0
:1048E0009C14002000F0FF1F00FCFF039A1400201E
:1048F00014990008580C0020540C00205C0C002077
:1049000038B50F4B0C4619680E4B0144186803F07C
:10491000D9FB0122002103880B4D0C482D78027031
:104920000B4A11700DB1DB439BB20170107820B1BE
:10493000002318461170238038BD0120FBE700BF1B
:104940005C0C00209C1400209A1400209914002074
:10495000981400204B7910B504460BB9012010BD06
:10496000FEF7FEFD00F02203A4F5F04020380A28EF
:10497000F4D8DFE800F0060A0E13171C2025292EB4
:10498000320000F0A5FE0020E9E723B100F016FF99
:10499000F9E7002BFAD000F0FDFEF4E723B100F0B8
:1049A00041FFF0E7002BFAD000F02AFFEBE723B13C
:1049B00000F060FFE7E7002BFAD000F047FFE2E7E6
:1049C00023B100F07FFFDEE7002BFAD000F066FF96
:1049D000D9E723B100F094FFD5E7002BFAD000F01F
:1049E00081FFD0E738B54D79044615B10125284639
:1049F00038BDFEF7B5FD00F02203A4F5F0404038C5
:104A00000C28F3D8DFE800F0070A0D1014191D2256
:104A1000262B2F34380000F071FEE8E700F086FE08
:104A2000E5E700F055FEE2E723B100F0C7FEDEE760
:104A3000002BFAD000F0AEFED9E723B100F0F2FE71
:104A4000D5E7002BFAD000F0DBFED0E723B100F071
:104A500011FFCCE7002BFAD000F0F8FEC7E723B136
:104A600000F030FFC3E7002BFAD000F017FFBEE7DD
:104A700023B100F045FFBAE7002BFAD000F032FF77
:104A8000B5E7000030B510F47F4F85B00190C0F35A
:104A90000725C0F307420DD109B12F4B9A5C11468F
:104AA0001346002061F3070063F30F2062F3174001
:104AB00005B030BD9DF80440002937D0264B995CE5
:104AC0000620FF2360435A1BB0FBF3F06FF0540342
:104AD000434303EB440303EB4303DBB203FB05F463
:104AE000C3F1FF036B4324121B12C4F1FF04C3F193
:104AF000FF034A434C434B43C2F30722C4F307244A
:104B0000C3F30723C9B2062823D801A555F820F01E
:104B1000A34A0008314B0008374B0008414B0008FE
:104B20004B4B0008534B0008A34A00081146C7E747
:104B30000B462146B5E7084611461A460346B0E73C
:104B40000846234611460246ABE708461946134677
:104B5000F9E713462246A4E798990008012184B09A
:104B600004B0FFF78FBF012830B501D8C0B230BD07
:104B7000B0F5F75F88BFFF224FF001049EBF4209E6
:104B80000832D2B2A3185910C3F34705C3F34F0339
:104B90005B439BB2984206D2013DEAB29442F1D9FE
:104BA000013CE0B2E3E7FF2902D00135ECB2F5E7C2
:104BB0000846DCE710F0400216BFC3430346DBB2F1
:104BC00010B503F00F0102B10131094CC3F3011319
:104BD00004EB4302527814F813304A4303EB2213D8
:104BE000DBB2020644BF5B42DBB283F0800010BD43
:104BF0007F99000884B0019000208DF80420019B6B
:104C0000DAB262F30700C3F3072262F30F20C3F3A3
:104C1000074363F3174004B0704784B0019000204D
:104C20009DF8102003EB430302EB53038DF804308F
:104C3000019BDAB262F30700C3F3072262F30F208D
:104C4000C3F3074363F3174004B07047C94384B00C
:104C5000C9B2019001EB8111C0B200EB11208DF8B7
:104C600004000020019BDAB262F30700C3F30722BD
:104C700062F30F20C3F3074363F3174004B0704798
:104C800084B0BDF81020C0F30741D31A9BB2FF2BAC
:104C900028BFFF23DBB2DA43D2B21144FF2928BF79
:104CA000FF210190034400208DF804308DF8061098
:104CB000019BDAB262F30700C3F3072262F30F200D
:104CC000C3F3074363F3174004B07047024B1A78ED
:104CD00010431870704700BFA014002084B004B0C7
:104CE000FFF73CBF08B50348FEF7BAFD0022024BB0
:104CF0001A7008BDF81A0020A014002010B5094C45
:104D0000092320460322084900F8013BFDF748FB30
:104D10004FF67F732046A380FEF7A2FD0022034BCF
:104D20001A7010BDF81A002024980008A014002062
:104D30000020704770B504460E461546FFF7F8FF91
:104D4000054B04EB840423449B5DFF2B1EBF2B54B7
:104D50000130C0B270BD00BF000C0020014BDB6809
:104D6000184700BF88990008704700002DE9F041FE
:104D70000C4615461E46054B5F68FFF7F5FF3346A8
:104D80002A462146BC46BDE8F041604788990008A4
:104D900073B51B4B0446034493F82D3019422DD0B4
:104DA000184E194B32791B88D20802FB0333711C51
:104DB0001D1203226846FDF7F3FAE8B2FFF7FAFE88
:104DC000A0F180035BB2002BBCBFC0F1800043B2F6
:104DD000F6785B00DBB206FB03331B128DF8023062
:104DE0000098FFF77BFFC0F30743C0F30722C1B26F
:104DF000204602B0BDE87040FFF7B8BF02B070BDFA
:104E0000000C0020F81A0020001B0020014B9B68BA
:104E1000184700BF889900082DE9F34705460E465C
:104E20001446FEF77FFD074600283DD02CB16A46A8
:104E300031462846FFF77EFF0446294D2B78234450
:104E4000082B20DDC4F10806611C32462944681C89
:104E5000FDF7A6FA04F109013246294405F10900DB
:104E6000FDF79EFA05EB44017200193105F11900B6
:104E7000FDF796FA04F111013246294405F11100BB
:104E8000FDF78EFA2E70002269461046964695F878
:104E900000C0DFF85080D6B206EB0C03B442DBB2A0
:104EA00005D808B164442C7002B0BDE8F08711F851
:104EB000019BEE1809F1040008EB400090F807A0F0
:104EC0000C33007A05EB4303707286F801A0384674
:104ED00086F8119083F801E083F802E00132DAE706
:104EE000A1140020000C0020012070470120704711
:104EF00008B5FFF7FBFF08BD08B5FFF7F5FFFFF7A3
:104F0000F7FF08BD00EB4000C3B20020DA1CD2B2AC
:104F10000F2A63F30700134628BF0F2382B063F301
:104F20000F2002B0704700002DE9F04F074689B00E
:104F300000780291FFF7E6FFDFF8B8802E4A98F874
:104F4000043015885B0803FB05552C4BC4B2C0F335
:104F5000072BC5F3072503EB440603F12D09E3B244
:104F60009B4507D8BBF10E0F8CBF0020012009B074
:104F7000BDE8F08F19F804207B781A4236D0F17B17
:104F8000327C70391FFA81FA0AFB0AF0203A92B299
:104F900002FB020080B20392FFF7E5FD0095034695
:104FA00098F801C098F8020098F803E0039A4CEAD8
:104FB000002012B20FFA8AF1DDF808C040EA0E4074
:104FC000E047C0F307238DF81C00C0F307408DF8BD
:104FD0001D308DF81E000798FFF780FEC0F30743D1
:104FE000C0F30722C1B22046FFF7C0FE02360134EB
:104FF000B5E700BFF81A0020001B0020000C0020BD
:105000000149FFF791BF00BF1B4C00082DE9FF4786
:1050100006460078FFF776FF88461F4F1F4B3D7905
:105020001B88AD0802355D43DFF874A0C0F3072983
:10503000C5F30725C4B2E1B2894507D8B9F10E0F0F
:105040008CBF0020012004B0BDE8F0871AF80420CE
:1050500073781A421DD0BA787B78F87843EA022335
:1050600043EA00402A46C047C0F307238DF80C00EE
:10507000C0F307408DF80D308DF80E000398FFF750
:105080002DFEC0F30743C0F30722C1B22046FFF74D
:105090006DFE0134CFE700BFF81A0020001B00208E
:1050A0002D0C00200149FFF7B1BF00BFF54B0008F0
:1050B0002DE9F04F334D074685B00078FFF722FF0A
:1050C0002B794FF6FF760133FF2B28BFFF2388464D
:1050D000B6FBF3F6DFF8B0B0DFF8B0A0C0F30729F5
:1050E000C4B2E0B2814507D8B9F10E0F8CBF0020E1
:1050F000012005B0BDE8F08F1BF804207B781A4230
:105100002ED09AF80030DFF888C0013B5BB21A0657
:1051100028D531462B79AA780133FF2B28BFFF23EE
:1051200003FB01116B78E87843EA0223C1F30F21F6
:1051300043EA0040C047C0F307238DF80C00C0F3DA
:1051400007408DF80D308DF80E000398FFF7C6FD6F
:10515000C0F30743C0F30722C1B22046FFF706FEA3
:105160000134BEE71CF80320824209D103F10C028E
:105170000AEB42025178927841EA0221B142C9D346
:10518000013BC4E7F81A00202D0C0020041B00206E
:10519000151B00200149FFF78BBF00BF4D4C0008D5
:1051A0002DE9F04F82468DB008780492FFF7AAFEF1
:1051B0008B463F4BC5B21B78C0F3072903933D4B89
:1051C00003EB45062D330593EBB2994507D8B9F1AA
:1051D0000E0F8CBF002001200DB0BDE8F08F059BA5
:1051E0005A5D9BF801301A421FD057460024032213
:1051F00031490AA8FDF7D4F82D4B0AEB0308039AAE
:10520000FBB29A4214D82D4BDB7803FB04442412E2
:105210008DF82A400A98FFF761FDC0F30743C0F3F9
:105220000722C1B22846FFF7A1FD01350236CBE7C0
:1052300018F8013FF17B327CC91A98F8083089B21E
:10524000D21A92B202FB02F001FB010080B2079277
:105250000691FFF788FC194B154A93F804E007F113
:105260000C030EF1010EBEF1FF0F28BF4FF0FF0E31
:1052700002EB430393F801C09B78079A4CEA032C96
:105280000EFB0CCC0699CCF30F238DF82A4000932B
:10529000049C034612B20A9809B2A047C0F3072340
:1052A0008DF828008DF82930C0F307440137A6E7B0
:1052B000041B0020000C0020F91A0020F81A00201E
:1052C000044B01461B78044A013B23EAE373D8B23E
:1052D000FFF766BF041B0020814C0008F7B50646A7
:1052E0000078FFF70FFE184AC5B253789178C0F3E3
:1052F0000724D07843EA012343EA0040FFF7EEFC9D
:10530000C0F307238DF80530104FC0F307438DF825
:1053100004008DF80630EBB29C4205D80E2C8CBFF1
:105320000020012003B0F0BD7A5D73781A4208D0E6
:1053300028469DF806309DF805209DF80410FFF7DB
:1053400015FD0135E7E700BFF81A00202D0C0020FD
:10535000F7B50446007830BB244B1A79244B05324C
:10536000FF2A28BFFF221B8802FB03330522C3F359
:105370000F23B3FBF2F202EB82029B1A9BB293B9AA
:105380001C4A138803EB432103EB810303F55853B5
:1053900019339BB2138003EB1323DBB2164AC3EB22
:1053A00003131B121380FFF7ADFD0546A378C6B2A9
:1053B000C5F3072593B9104F3888864210D8A84204
:1053C0000ED26178C0B2FFF7E3FC10233B8007E008
:1053D00030466178FFF7DCFC0136F6B2AE42F7D317
:1053E0000E2D8CBF0020012003B0F0BDF81A002064
:1053F000001B0020680C0020600C002038B5284BF2
:1054000005461B78274A83421BD127491378097820
:1054100003F003035B1A18BF0123244CA3705379D4
:1054200062789A4205D00022114610466370FFF759
:10543000EDFC062D0ED8DFE805F0061B1F23272BF9
:105440002F000123E9E7A37823B10022114610467B
:10545000FFF7DCFC002023780133237038B90222E7
:10546000134B1A70A27812B90DB903221A7038BD05
:105470000E48FFF733FFEEE70C48FFF713FEEAE7AD
:105480000A48FFF7BDFDE6E70848FFF783FEE2E7BD
:105490000648FFF715FFDEE70448FFF759FFDAE794
:1054A000660C0020F81A0020670C0020630C002016
:1054B000620C0020012070470120704708B5FFF7FB
:1054C000FBFF08BD37B500780138C0B2FFF71AFD01
:1054D000C0F30724C5B221462846FFF7EBFF21465B
:1054E0002846FFF7EBFF03B030BD00002DE9F04187
:1054F0003D4C3E4E206801F072FB054601F0C2FBB8
:105500002060002496F800E0A4467146C5F57F4768
:10551000FF37E3B29E4514D8BCF1000F00D03170C4
:10552000334B1B782BBB334B1B7813F0030500D098
:105530009D08314C2378032B29D8DFE803F01C2A7F
:10554000394504F10C0206EB4202537892F80280CE
:10555000013443EA08239F4229BF5B1901F1FF315F
:105560005370C3F307233ABF4FF0010CC9B29370D5
:10557000CFE70025DDE70022204B1C491A70204BA5
:10558000292218601F48FCF70BFF01232370BDE898
:10559000F0812846FFF732FF002DF8D02378022B48
:1055A00001D1FFF7A9FCBDE8F0411448FFF78ABF1D
:1055B000154B164A1D700F4B1B78C3F30103137074
:1055C000FFF7CCFB0323E1E7114D2B7823B109480A
:1055D000FEF746F900232B70094B186801F0FFFA1B
:1055E0000F28D4D90023D1E7CC140020A114002027
:1055F000D0140020F81A0020620C0020630C002058
:10560000001B0020041B0020660C0020670C0020FB
:10561000A014002070B50024104B114D1B68984752
:1056200010481022FF2100F8194BFCF769FE0E48C4
:105630001022FF2100F8194BFCF762FE01230B4EEC
:1056400028463370FEF70AF92B783470032B03D801
:10565000BDE87040FFF752BB70BD00BF88990008DD
:10566000F81A0020041B0020A1140020A014002020
:1056700070B504460A4E88B135787DB92846FFF7E3
:10568000BDFE084B084A1D70084B1B78C3F301038D
:105690001370FFF763FB0322054B1A70347070BD63
:1056A000D0140020660C0020670C0020F81A00209F
:1056B000620C0020044A137883F001031370002267
:1056C000024B1A70FFF702BBF81A0020620C002090
:1056D0000120FFF7EFBF0000064A137813F0030321
:1056E00004BF05490B700121137861F301031370A6
:1056F000704700BFF81A0020620C002008B5FFF7C1
:10570000EBFFBDE808400120FFF7E0BA054B1A782F
:1057100092071EBF0021044A11701A7822F003027A
:105720001A707047F81A0020620C002008B5FFF7C5
:10573000EDFFBDE808400120FFF7C8BA0C4A034658
:1057400008461178890711D063B1062B0CD803F0F5
:105750003F03117863F3870111700022054B1A7023
:10576000FFF7B4BA0123F4E70623F2E7704700BF5E
:10577000F81A0020620C0020054B01461B789B089C
:105780000133072B34BF18460120FFF7D7BF00BFF6
:10579000F81A00200120FFF7EFBF0000064B01467A
:1057A0001B78C3F38503013B13F0FF0314BF1846B6
:1057B0000620FFF7C3BF00BFF81A00200120FFF743
:1057C000EDBF000030B4084C0546184623789B070F
:1057D00008D0B42A28BFB4226570A170E27030BC32
:1057E000FFF774BA30BC7047F81A0020034903462B
:1057F0004878CA7808308978FFF7E4BFF81A0020A3
:105800000120FFF7F3BF0000054910B44C780346B0
:10581000083CCA78A0B2897810BCFFF7D3BF00BF9C
:10582000F81A00200120FFF7EFBF000010B4064C6B
:105830000346A178E2781031FF2928BFFF21607864
:10584000C9B210BCFFF7BEBFF81A00200120FFF755
:10585000EDBF000010B4064C0346A178E278103981
:1058600021EAE1716078C9B210BCFFF7ABBF00BF9D
:10587000F81A00200120FFF7EDBF000010B4064C1D
:105880000346E278A1781032FF2A28BFFF22607811
:10589000D2B210BCFFF796BFF81A00200120FFF724
:1058A000EDBF000010B4064C0346E278A178103A30
:1058B00022EAE2726078D2B210BCFFF783BF00BF69
:1058C000F81A00200120FFF7EDBF0000044A137909
:1058D0001033FF2B28BFFF231371FFF7F7B900BF69
:1058E000F81A00200120FFF7F1BF0000034A1379E6
:1058F000103B23EAE3731371FFF7E8B9F81A0020AD
:105900000120FFF7F3BF2DE9F0414FF0120C4618CC
:105910000546194610460027B54201D3BDE8F0817F
:1059200015F8013B83EA0002A2FB0C830CFB013358
:105930004801540114EB080440EAD26043EB000331
:105940004FEAC218A4184FEAC11041EB03034FEA13
:10595000022E40EA526014EB08044FEA012143EBA7
:10596000000341EA126114EB0E0443EB01030EEB5A
:1059700003013819D0E708B5A0F5E8433F2B09D853
:105980004B79C0B21BB100F021F8002008BD00F037
:105990001EF8FAE70120F9E77047000001289FBFD1
:1059A0000C22034B02FB0033D88888BF00207047CD
:1059B0006C0C002010B5044CA37923B1204600F0F4
:1059C0005BFF0023A37110BDD21400207047704705
:1059D000012810B504461FD8FFF7E0FF0C230F493C
:1059E00002B203FB0411CC888B88121BA2EB0222AB
:1059F0001B1B92FBF3F3002BC1BF0B8952421B1BF5
:105A000092FBF3F36FF0FE029342B8BF1346FF2BF5
:105A1000A8BFFF2318B210BD0020FCE76C0C0020CB
:105A200010B5074C2368013302D00020FFF7B4FF04
:105A3000E368013302D00120FFF7AEFF10BD00BFC5
:105A40006C0C0020012809D8054B03EB4000B0F98D
:105A500002208A421EBF012241809A71704700BF16
:105A6000D214002010B50C4C2368013306D000205E
:105A7000FFF7AEFF01460020FFF7E4FFE3680133C4
:105A800006D00120FFF7A4FF01460120FFF7DAFF4F
:105A9000BDE81040FFF78EBF6C0C0020FFF7C0BFC1
:105AA000FFF7E0BFFDF73EBF08B50822002103481D
:105AB000FCF726FCBDE8084000F0ECB8DB14002041
:105AC0008378C078013303F003031B1A584258410E
:105AD000704710B50446FFF7F3FF78B9A37801F0DB
:105AE0007F01E01841EAC21202710120013303F084
:105AF0000303A37023780133237010BD0020FCE75B
:105B000010B5C37884789C4211D003441B79C3F349
:105B1000C014C3F306030B701470C378013303F091
:105B20000303C370437801334370012010BD00208C
:105B3000FCE700000A4601460148FFF7CABF00BF64
:105B4000DB1400200A4601460148FFF7D9BF00BF19
:105B5000DB14002038B50D46FCF798FC044620B154
:105B60000A2125B1A920FCF7F3FE204638BDAA2062
:105B7000F9E70000124B37B51A7832B100221A70DB
:105B8000104B9A78DA701A785A7000F0B9F8FFF76B
:105B900089FF044688B1002406E09DF807109DF8AF
:105BA0000600FFF7D7FF2C460DF107010DF10600A7
:105BB000FFF7C8FF05460028EFD1204603B030BDEF
:105BC000DA140020DB1400204FF4E15001F0CCBEC9
:105BD00069B1084B53F82000431C0AD0012100F0A2
:105BE0000F030322994020F00F0003F08FB8024BFF
:105BF000F0E77047A89A0008B09A000879B1094BFD
:105C000053F820305A1C1FBF23F00F02906803F096
:105C10000F03D84014BF00F0010000207047024B72
:105C2000EEE700BFA89A0008B09A0008704700008D
:105C30002DE9F0410025154F3B78ECB2A3420CD87A
:105C4000FFF7C2FF0026DFF848803B78F5B2AB4291
:105C50000DD8FFF7EBFFBDE8F08100212046FFF7EC
:105C6000B7FF01212046FFF7B3FF0135E4E700212C
:105C70002846FFF7C3FF012104462846FFF7BEFF71
:105C800044EA400408F805400136DEE7E31400204A
:105C9000E61400200222024B1A70FFF7C9BF00BFB2
:105CA000E314002038B541EA4203124ADBB2115C2A
:105CB000044601F00305AB421AD043EA8103DBB28C
:105CC0000D4D13540D4A03F00F03D35C2A5C1344AB
:105CD0005BB2002B2B5402DD0021FFF72BFF2B576B
:105CE000002B03DA01212046FFF724FF00232B5568
:105CF00038BD00BFE6140020E4140020989A000884
:105D0000F8B500250A4F3B78ECB2A34200D8F8BDA5
:105D100000212046FFF772FF012106462046FFF7CB
:105D20006DFF314602462046FFF7BCFF0135EAE72A
:105D3000E314002038B51A4D4FF4B4720C212846F4
:105D4000FCF7DEFAE022002105F5B470FCF7D8FA82
:105D500011224FF40071134802F0D8FF0023124CB7
:105D60001A460A21062002F02DFF104BE2695B6EF5
:105D700040329A6043F2B012DD601A604FF4127242
:105D80005A601A68204642F001021A60084902F07F
:105D9000DFF92046BDE838400022032102F0EAB9CD
:105DA000E8140020000C0140001C0020349D000875
:105DB000B89A000830B51825104C05FB00400024A7
:105DC00041FA04F515F0010F0CBF0C252025C57113
:105DD00042FA04F515F0010F0CBF0C25202500F840
:105DE000015D43FA04F515F0010F0CBF0C252025C9
:105DF0000134082C0574E3D130BD00BFF01400203D
:105E000030B5044D00EB40002C1861702A54A3708B
:105E100030BD00BF2D1B002070B5134605460E4651
:105E200000242046324629460134FFF7E9FF0F2CB3
:105E3000F7D170BD38B50025064CA378227861787B
:105E4000A8B20135FFF7B6FF0F2D04F10304F4D11A
:105E500038BD00BF2D1B0020FDF7F2BC08B50020A7
:105E6000FEF778F800F0010008BD08B5FEF730F93C
:105E700040F6B83001F0FFFEFEF72AF9FFF7EEFF1B
:105E800028B1FFF7E9FFBDE8084000F049BF08BDB1
:105E900008B5FFF7EAFF08BD704700002DE9F84399
:105EA0001C4F3B785BB14FF00E091B4EDFF86C8046
:105EB00034783B78A34204D800233B703370BDE8AC
:105EC000F88309FB04F202EB0803651C1979EDB2B3
:105ED000357079B1198979B94FF6FF7158898842BF
:105EE0000AD00121FFF7D8FF002309FB04842371A6
:105EF000FDF762FB2C46DCE738F80200B3F802C07D
:105F00009A88D98840EA0C4042EA01411A89FDF793
:105F1000ABFAE9E7AC170020311700203C1700204E
:105F20007047000038B50024084B1C80FCF7F8FAD5
:105F3000A5B2A84200D838BD2846FCF7F3FAC379C9
:105F40000BB9837103720134F0E700BFAE17002074
:105F500038B50D4D0D4B2C781B780D4AA3420ED051
:105F600032F8141081420BD1FCF7DCFA0123837163
:105F70002B78A34203D1013404F003042C7038BD04
:105F8000013404F00304E9E73A1700203B1700202E
:105F9000321700208B792DE9F74F002B41D1224D8C
:105FA0001F46A8464FF6FF794FF0010C1F4A92F8A2
:105FB00000B0DAB25A452BD24FF0000E4FF6FF7404
:105FC0000A68B5F80CA00192019E5FFA8EF236F8CD
:105FD00012600EF1010EB24508BF94B2002EF3D14B
:105FE0004C451BD00CFA04F43C430CFA02F2E7B225
:105FF000013ABA4211D10E2253438C8808EB0302B6
:1060000014810424147128F80360508181F807C0BA
:1060100003B0BDE8F04FFFF79BBF2E7101330E3583
:10602000C7E703B0BDE8F08F3C170020AC17002095
:1060300070B50D4B0D4E1C780D4D3378A34205D134
:10604000FFF72CFFBDE87040FFF76CBF35F8140078
:10605000FCF768FA014635F814000134FFF79AFF9F
:1060600004F00304E9E700BF3A1700203B170020C3
:10607000321700200022F0B50446134608461146A8
:10608000D4F800E0D5B23EF8156076B10025D0F81E
:1060900000C003E0BE4208BF01210135EBB23CF86D
:1060A0001370002FF6D10132ECE719B1AB4228BFD3
:1060B0002046F0BD0846FCE70F4B70B51B789BB13E
:1060C0000E4C208880B100F083FD0D4E3388834252
:1060D0000AD20C4B00251A780B4B1B789A4204D03D
:1060E000FFF7A6FF3580258070BDFFF7D7FE25801E
:1060F000BDE87040FFF716BF840C0020B0170020E9
:10610000AE1700203A1700203B17002008B50023E7
:10611000064A1380064A1370064B1A78064B1A700B
:10612000FFF700FFBDE80840FFF7B8BEB01700203A
:10613000840C00203B1700203A170020034B1A78EC
:106140000AB1FFF7E3BF01221A707047840C0020E8
:1061500047F650432DE9F04F98420746894687B0ED
:1061600008D14B79C3B10122914B1A70012007B0BD
:10617000BDE8F08F47F65143984204D14B795BB1AB
:10618000FFF7C4FFF2E747F65243984204D14B7938
:1061900013B1FFF7D3FFE9E7864B1888864B1B88BE
:1061A000184380B2FCF7F7FA0446FFF7B9FE8442C1
:1061B00004D0B9F80010FDF757FD07464FF0000B6B
:1061C000CDF800B0FCF7ACF91FFA8BFA50452AD88D
:1061D00099F80530002B00F0D980009B002B00F0CF
:1061E000D58000F085FD754B1880754B1C78072C09
:1061F00013D8621C1A7049460A2203A8FCF7D0F88B
:106200000E22704B03A902FB04330A221846FCF746
:10621000C7F84FF6FF7287814281009B83F001002F
:1062200000F00100A3E75046FCF77CF94FF6FF7839
:10623000002104460068CAB230F812500131AF4262
:1062400008BF1FFA82F8002DF5D14FF6FF7398456D
:106250003DD0A07930BB564B1B7899F80550E679B4
:10626000217A002D58D0002B56D056B9012000FAC3
:1062700008F30B432372544B198831299CBF3221F8
:1062800019800126237A06FA02F2013A9A421ED1B7
:106290004A4B188840B100F09BFC322804D9A67103
:1062A000354614E02B46D8E70020484BDFF8208124
:1062B0001E7898F80020B24210D1844207D0454B96
:1062C00023F816A0013606F0030688F80060009B4C
:1062D0000BF1010B2B43DBB2009373E73D4B33F81B
:1062E0001600FCF71FF921460190FFF7C3FE374B5C
:1062F00070B14FF0010284428271E8D01978019A9E
:106300008E4205D1824202BF721C02F003021A7053
:10631000013606F00306CCE7A6B9012505FA02F21C
:10632000013A8A4202D148B903EA05060122237ADA
:1063300002FA08F223EA02032372B1E75046FFF79C
:1063400007FEF3E74A1E41FA08F00A4000F0010098
:106350001AD1C8B1A18899B10392049200F0C8FC87
:1063600004228DF81020A28803ADADF80E00ADF820
:10637000142095E80700FDF777F80022E271D5E7D1
:106380005046FFF789FDF8E7C6B2CFE70F4B1A7802
:106390000F4B1B789A4202D0FFF74AFE3DE7FFF70A
:1063A0007DFD0022054B1A80FFF7BCFD35E700BFDD
:1063B000840C0020BA0F0020BC0F0020B017002072
:1063C000AC1700203C170020AE1700203A17002021
:1063D0003B1700203217002047F61643984210B5AD
:1063E0000C461BD1FDF7BCF862790D4B72B100F081
:1063F000AA00002813BF01220022292035201A708C
:1064000000F0ECFAFDF770F9002010BD1B78002BAE
:106410000CBF2920352000F0FFFAF3E70120F4E754
:10642000B217002010B504464879002800F00E810C
:10643000A4F5E044A3B2222B34D88548013CFDF7F3
:1064400009FA212C23D8DFE814F07100EF007B005B
:106450003400390080003E00850094004D00E600C5
:106460005200990057009E00CC005C00A300D500AC
:106470006300AA00B40043008A0048008F006A004D
:10648000AF00C100E000E4002E007600F800704A82
:10649000137843F0010313706D48FDF7DDF9FCF745
:1064A0009FFC002010BD6A4A537843F008035370E4
:1064B000F2E7674A137843F00203ECE7644A137883
:1064C00043F00403E7E7624A137843F00803E2E786
:1064D0005F4A537843F00103E9E75D4A537843F09C
:1064E0000203E4E75A4A137843F01003D3E7584A0B
:1064F000137843F02003CEE7554A137843F0400366
:10650000C9E7FCF76DFC524A137843F08003C2E7F9
:106510004F4A137823F00C0343F00C03BBE74C4ABB
:10652000537823F0030343F00303C0E7484A13788A
:1065300023F00103AFE7464A537823F00803B6E798
:10654000434A137823F00203A5E7414A137823F066
:106550000403A0E73E4A137823F008039BE73C4A74
:10656000537823F00103A2E7394A537823F002035A
:106570009DE7374A137823F010038CE7344A1378E9
:1065800023F0200387E7324A137823F0400382E7A1
:10659000FCF726FC2E4A137823F080037BE72C4A75
:1065A000137823F00C0376E7294A537823F003038A
:1065B0007DE727490B78C3F3800282F00102D2B253
:1065C00062F3820362F3C3030B7065E720494B78E3
:1065D000DA4302F0010262F3000362F341034B70FD
:1065E0005AE71B490B78C3F3801282F0010262F371
:1065F0008613E9E7FCF7F4FB15490B78C3F3C012E7
:1066000082F0010262F3C713DEE70120FDF72AF9E9
:1066100042E70020FAE70E490B78C3F3001282F03C
:10662000010262F30413CFE709490B78C3F30002B8
:1066300082F0010262F30003C6E705494B78C3F319
:10664000C00282F0010262F3C303C8E7012029E718
:10665000EC1A0020F8B5144642791D469DF81870D2
:10666000284B92B11C7000F043FB274B188004F1BB
:106670002003DBB2072B44D8012004F00704A0401C
:10668000C0B2BDE8F840FCF789B91E78A6422ED109
:106690001D4B188800F09CFAC72828D8AE4205F197
:1066A000200415D006F12003DBB2072B06D8012009
:1066B00006F00706B040C0B2FCF779F9E3B2072B49
:1066C00006D8012005F007039840C0B2FCF766F930
:1066D0003846E4B2FCF75AF9072C12D8012005F02D
:1066E0000705A840C0B2BDE8F840FCF760B904F166
:1066F0002003DBB2072B04D8012004F00704A040DC
:10670000F0E7F8BDB6170020B41700200346A3F544
:10671000F843183B07B50846062B3BD8DFE803F0E3
:10672000171E0410252C330026230093E12347F67F
:106730001A411A46FFF78EFF002003B05DF804FBF4
:1067400027230093E52347F61B411A46F2E7262349
:10675000E022009347F61841E123EBE72723E422E8
:10676000009347F61941E523E4E72623E22200934C
:1067700047F61C41E123DDE72723E622009347F695
:106780001D41E523D6E72823E522009347F61E4165
:106790000123CFE74B7913B10022024B1A7001207D
:1067A000CBE700BFB6170020014B1860704700BF51
:1067B000BC17002008B500F0C1F9431E58425841EB
:1067C00008BD0000034B1B6813B11B6803B11847D9
:1067D00000207047BC170020034B1B6813B15B6897
:1067E00003B11847704700BFBC170020044A126865
:1067F00022B1926812B1062101701047704700BFA4
:10680000BC1700200B4B07B51A8882420FD01880A6
:10681000094B1B685BB11B694BB103228DF8050066
:10682000000A8DF806008DF8042001A8984703B0EF
:106830005DF804FBBA170020BC1700200C4B07B50D
:106840001A88824210D018800A4B1B6863B11B69FA
:1068500053B104228DF80500000A8DF806008DF86A
:1068600004200DEB0200984703B05DF804FB00BF65
:10687000B8170020BC1700200C4B07B51B688BB164
:1068800007238DF8003083788DF80130C3788DF8B8
:10689000023003798DF80330437968468DF804306F
:1068A00000F036FC03B05DF804FB00BFBC1700200D
:1068B0000F4B10B51C680234FFF77CFFB0B10D4BD5
:1068C00093F90030002B11DA1E210B4B1C680234A7
:1068D0002246002012F8013B0BB10130C0B28B1AE6
:1068E000234403F0FF03002BF4D110BD0621EFE792
:1068F0004C0C0020EC1A0020480C002010B5044677
:1069000018B3FFF757FFB0B1124B93F90030002BCB
:1069100011DAEF2C4FEAD40217D80F4B04F007041A
:106920001B6813449A78012303FA04F4224214BF2B
:106930001846002010BD094B1B685A1C073312F87B
:10694000011FA14203D09A42F9D10020F2E70120B1
:10695000F0E700BFEC1A0020480C00204C0C00208F
:1069600000224FF0FF3330B5441C14F8015F8D4214
:106970000BD0B3F1FF3F01D105B953B20132062A62
:10698000F3D15A1C01D01844817030BD002210B5DB
:10699000431C073013F8014F8C4208BF1A70834222
:1069A000F8D110BDEF294FEAD10307D818440123CD
:1069B000827801F007018B40134383707047EF2901
:1069C0004FEAD10308D801221844837801F0070167
:1069D0008A4023EA020383707047000010B5044622
:1069E000FFF7E8FE214650B1084B93F90030002B29
:1069F00005DABDE81040064B1868FFF7D3BF054B1A
:106A0000BDE810401868FFF7ABBF00BFEC1A0020CC
:106A1000480C00204C0C002010B50446FFF7CAFEBD
:106A2000214650B1084B93F90030002B05DABDE840
:106A30001040064B1868FFF7C2BF054BBDE8104079
:106A40001868FFF7A3BF00BFEC1A0020480C002015
:106A50004C0C002008B5FFF7ADFE68B1084B93F968
:106A60000030002B08DA1E22064B18680021BDE812
:106A700008400230FBF744BC034B06221868F5E7D8
:106A8000EC1A0020480C00204C0C002082B002B010
:106A9000704707B5FFF7FAFF03B05DF804FB00008D
:106AA00007B5042206490130C8700DEB0200FBF760
:106AB00077FC0198FFF7EDFF03B05DF804FB00BF22
:106AC000850C002007B50422032306490DEB0200C4
:106AD000CB70FBF765FC0198FFF7DBFF03B05DF8B7
:106AE00004FB00BF850C0020FFF7DABF07B50422C6
:106AF000012306490DEB0200CB70FBF751FC019816
:106B0000FFF7C7FF03B05DF804FB00BF850C002052
:106B1000FFF7ECBF07B5003818BF01200422064973
:106B200088700DEB0200FBF73BFC0198FFF7B1FF0B
:106B300003B05DF804FB00BF850C0020014B987882
:106B4000704700BF850C002007B504220549487036
:106B50000DEB0200FBF724FC0198FFF79AFF03B04E
:106B60005DF804FB850C0020014B5878704700BF8E
:106B7000850C002007B50422054908700DEB0200C2
:106B8000FBF70EFC0198FFF784FF03B05DF804FBF0
:106B9000850C002070477047704708B5FFF7FCFF71
:106BA00008BD704708B5FFF7FCFF08BD10B5FFF73B
:106BB000F1FF0024FDF78CFAFFF7EDFFE0B2FDF7DF
:106BC000C9F918B90134032CF8D110BD0120FCE734
:106BD00010B5044600F08CF8001B80B210BD10B553
:106BE000044600F04FF8001B10BD000010B504462D
:106BF00010220021FBF784FB034B204603F5FD61C7
:106C00000EC984E80E0010BD00F0FF1F08B501F0AA
:106C10004BF9BDE8084000F069BE08B5FBF7A1FDDF
:106C2000BDE8084040F2A46001F025B808B5FCF7C3
:106C3000ADFCFCF7C1FCFFF70DFF0020FFF7E2FD04
:106C40000020FFF7FBFDBDE80840FBF798BD000002
:106C5000302383F31188064BDA69064B1A60002350
:106C6000054A1360054A136083F31188704700BF1B
:106C7000781B0020C8170020C4170020C017002070
:106C8000FFF7E6BF70B500F057FE124D124B1349E7
:106C9000DC692B680A68E41AA242114A0AD9A3F5F2
:106CA0008333E03B2B6015680E4B04F583342B4493
:106CB000E034136016680C604FF47A7500F045FEFE
:106CC000002109480023E4FB0501084AFBF7CEFA3E
:106CD000304470BDC8170020781B0020C417002066
:106CE000C017002088598F029F860100A0860100EE
:106CF00008B5FFF7C7FF80B208BD0000BFF34F8F94
:106D00000549064BCA6802F4E0621343CB60BFF347
:106D10004F8F00BFFDE700BF00ED00E00400FA0563
:106D200008B5FFF7EBFF000044F24D2208B5024B17
:106D30009A62FFF7E3FF00BF006C004070B590F867
:106D40007420044602F07F03212B50D112F0800FF3
:106D500090F875301ED0022B18D0032B05D0012BD4
:106D600018D1BDE8704000F019BC90F8783090F868
:106D7000791053EA01253AD1FFF7E0FE344B25673D
:106D80001870A3660123E366012070BDBDE8704062
:106D900000F034BD0A2B21D00B2B10D0092B26D1AB
:106DA00094F8783094F8791043EA0123012B1ED827
:106DB000284BA3660223E366274B2367E4E794F896
:106DC000783094F8792053EA022303D194F87600BE
:106DD000FFF7A0FE0023A366E366EEE794F87700D2
:106DE000FFF7C8FE2046BDE8704000F02FBD02F05E
:106DF0009F02812A03D194F87530062B11D0174DCC
:106E0000D5F8843023B9D5F8143133B90020BCE764
:106E1000204698470028F6D0B6E72046BDE87040E7
:106E2000184794F87920616894F878304D6843EAFF
:106E30000223204694F8772094F87610A84700287B
:106E4000E4D04368A3660368E3660023B5E700BFA8
:106E5000D4170020D8170020A56E0008A00C002031
:106E6000F8B50F4C0022234643F8042F90F87B70AE
:106E700090F8796090F8765090F87A2090F8781031
:106E800090F8770042EA072241EA062145EA00200D
:106E900000F0B8F920606068002818BF2046F8BDEF
:106EA000CC170020034693F87A2093F87B300749EB
:106EB00042EA0323022B087804D1012801D00628D6
:106EC00002D14878FFF740BE704700BFD8170020B6
:106ED00010B5064A064C117824784B1C03F00F03BA
:106EE0009C421EBF034C1370605410BD6A1B0020EF
:106EF0006B1B00205A1B0020084608B5052929D81D
:106F0000DFE801F01A28031A1A29302383F31188C5
:106F1000184800F021FA184800F01EFA002383F305
:106F20001188164B1B7813B10520FFF7D1FF022003
:106F3000BDE80840FFF7CCBFFFF7CAFF302383F35B
:106F400011880C4800F0F1F90B4800F0EEF900232D
:106F500083F3118808BD302383F31188054800F0BE
:106F6000F8F9054800F0F5F9002383F311880520AE
:106F7000DEE700BFA00C0020300D0020DA17002053
:106F8000102208B500210448FBF7BAF90023034A90
:106F90001370034A137008BD5A1B00206A1B00209F
:106FA0006B1B0020F8B5294D294C00222E78237840
:106FB000B34232D102B12370F8BD2370254B187053
:106FC000254B93F87F10081E18BF0120FFF77AFDAC
:106FD000EBE7002223701F4B1A70FFF727FE1E4BB2
:106FE00093F87F10081E18BF0120FFF77DFDDCE736
:106FF0002370194B93F87F10081E18BF0120FFF76C
:107000004FFDD2E7002123700846F8E72370FFF711
:107010006DFD0120FFF77EFDC7E7194601220F48ED
:107020000133415C03F00F0310460529C0D801A7C6
:1070300057F821F00D700008B16F0008F16F0008DB
:1070400005700008BB6F0008D36F00086A1B0020A2
:107050006B1B0020DA170020201C00205A1B002088
:1070600070B505464FF48056134C204600F03AF9AF
:107070002046903400F04AF9204600F033F92046CB
:107080000E4C00F043F906224FF48051204601F0E7
:107090003DFE2846666101F0B0F841F2883000F00C
:1070A000EAFD2846064901F094F831462046BDE83D
:1070B0007040022201F02ABEA00C0020000801400E
:1070C000F09A000837B500239025054C009305FB86
:1070D000004042F2107300F099F903B030BD00BFD8
:1070E000A00C002010B50446FFF728FD2146BDE89E
:1070F000104008220120FFF7E5BF014620220020B2
:10710000FFF7E0BF7047014603220020FFF7DABF18
:10711000014605220020FFF7D5BF70477047704732
:1071200008B5FFF7FAFF02F015FAFFF7F7FF08BD01
:1071300008B502F017FAFFF7F2FF08BDFFF7E8BC49
:1071400008B5FFF71DFF0448FFF78AFFBDE80840B8
:1071500041F2883000F08FBD201C00200148FFF76D
:1071600023BB00BF8C0C002010B50C4CFFF71AFF9E
:107170002378052B02D12378052B00D010BDFFF713
:107180004CFDFFF713FD0028F5D0B4F87C309B07C9
:10719000F1D5204601F0BCF8EDE700BF201C00202F
:1071A00000F0AEBA30B5144B85B01C7814BB012288
:1071B00068461A70FFF71AFD2346104A104C04A9BE
:1071C00001EB630111F8100C02EB43010509655D49
:1071D00000F00F008D700025205CCD70591C02332B
:1071E00002EB4101202B8870CD70E8D1422313704F
:1071F0000323537005B030BDDB170020DC170020DF
:10720000009B0008020A032A10B51C460FD007D8BD
:10721000012A2AD0022A07D13B201A4A226010BD37
:10722000212A16D0222A1AD000200246F6E7C0B240
:107230000328F9D8DFE800F01C0205081420124AE0
:10724000ECE71020114AE9E7FFF7ACFF104A10788D
:10725000E4E781B10129E7D109200E4ADEE769B1EF
:107260000129E1D18B200C4AD8E712200B4AD5E73F
:1072700004200B4AD2E709200A4ACFE744200A4AF1
:10728000CCE700BF3D9B0008239B0008119B000832
:10729000DC170020689B00088A9B0008789B000888
:1072A000399B00084F9B0008159C000813B5446BE0
:1072B000226F1378042B12D1012394F874101289D1
:1072C0008B4013420BD1204601A900F026FE024656
:1072D00028B1019B94F87410206F01F007F802B0F8
:1072E00010BD00001FB500F15C03C364064B012113
:1072F0000193836FD0F8802000930290C36F00F059
:10730000E9FD05B05DF804FBAD720008302383F39E
:107310001188036F90F8742003EB820398620023B6
:1073200080F8883083F311887047012310B5044634
:1073300003726FF0010100F0CEFC204600F0E1FD89
:10734000D4F88C3023B1BDE81040DA6818681047D3
:1073500010BD00230372704710B5044690F87410F6
:1073600000F13802006F00F071FF204600F0C9FD07
:107370000023237210BD00EB8103F7B59C6A05461C
:107380000E4684B3302383F311880023226984F8E6
:10739000883063699A4201D1E368B3B905EB86038B
:1073A000DB685B691B6883B1D4F88C3053B101A9E9
:1073B000204600F0B2FDD4F88C3001469F68019A57
:1073C0001868B847204600F0B6FD204601A900F035
:1073D000A4FD024648B1019B3146284600F086FFD5
:1073E000002383F3118803B0F0BD05EB8603DB684F
:1073F0001A68022AF4D15A691268002AF0D01B8A4E
:10740000013B1340ECD105F17402E5E72DE9F843A7
:107410001D4604460F46164630239DF8208083F310
:107420001188036F00201B78042B03D080F3118890
:10743000BDE8F88394F8883023B101354FF0FF356B
:1074400018BF002580F311882B4632463946204666
:1074500000F0ACFD86421DD9302383F3118894F8E7
:1074600088304FF00009002808BF43F0010384F87A
:10747000883001236FF001012372204600F02BFCBD
:10748000204600F03EFD84F8089000F05DFB89F393
:107490001188D9E7B8F1000F01D00120C8E72046D4
:1074A00000F0C7FDF9E7302383F3118802694369CF
:1074B0009A420FD1C3687BB10123026F90F8741018
:1074C00012898B4013420CBF01200020002383F35C
:1074D000118870470020F9E71846F7E7006810B4F4
:1074E00040B1054C8264E469083040F8044C10BC9B
:1074F000FAF756BF10BC7047781B0020016813468E
:1075000031B18A6C03F108009A640831FAF748BF78
:10751000704710B50446006840B1826C0021083005
:10752000FAF7EEFE002223681A605A6010BD0000D0
:1075300010B40C78082C0BD850F8240040B1054C3E
:107540008264E469083040F8044C10BCFAF728BFA4
:1075500010BC7047781B00200829134609D850F842
:10756000211031B18A6C03F108009A640831FAF7EE
:1075700017BF704770B50026051F00F1200455F8AD
:10758000040F38B1826C00210830FAF7B9FE2B687D
:107590001E605E60A542F2D170BD000038B590F863
:1075A00078300446012B1CD890F87610082918D89A
:1075B0000D4AD25C012A14D890200C4B00FB0233F8
:1075C000D3F88C0060B10A4D43682A46006898479A
:1075D00005F10803A366AB6C0120E3660023236773
:1075E00038BD0020FCE700BF9C0F0020A00C00204D
:1075F00030190020036843B19100196003490B78EA
:10760000002A18BF43F001030B7070477C1900205B
:10761000006810B10068C0F387007047036870B558
:107620000BB9002070BD302383F31188036800215B
:107630001C685B6881F31188002CF2D04FF47A76D5
:10764000074A0848D569084AED1AE5FB06010023F8
:10765000FAF70CFE84428CBF00200120E2E700BF55
:10766000781B00209F860100A08601004B1E072B7F
:107670000BD850F8213043B19100196003490B78C1
:10768000002A18BF43F001030B7070477C190020DB
:10769000082906D850F8210020B10068C0F38700FF
:1076A0007047002070470000082970B501D90020FC
:1076B00070BD50F82130002BF9D0302383F31188AE
:1076C00050F8213000211C685B6881F31188002C80
:1076D000EDD04FF47A76074A0748D569074AED1A84
:1076E000E5FB06010023FAF7C1FD84428CBF0020B0
:1076F0000120DDE7781B00209F860100A0860100A5
:107700002DE9F84F394B1B78002B3FD000264FF066
:10771000300A35463746DFF8D8B0DBF88C40002C0D
:107720002FD0002E36D14FF001088AF311885FFA6E
:1077300088F94946636920689847002818BF45F0D2
:10774000010587F311882A48FFF7ADFEA0B149462D
:10775000A3692068984778B18AF31188254A494679
:1077600063682068984787F31188224B00209A6C41
:1077700003F10801FFF7A6FC08F10108B8F1090FB1
:10778000D3D10BF1900B1EB1184B1D70BDE8F88FD3
:107790000126C2E78AF311880021636920689847AF
:1077A000814687F311881448FFF77DFE20B1002140
:1077B000A3692068984728B9B9F1000F18BF45F0B0
:1077C0000105DEE78AF31188DFF8288000214246B0
:1077D00063682068984787F311880120D8F848200B
:1077E00008F10801FFF76EFCE6E700BF7C190020F6
:1077F000A00C0020E4180020300D002010B590F8F7
:1078000078300446012B19D890F87610082915D83D
:107810000B4AD25C012A11D890200A4B00FB02339C
:10782000D3F88C0048B1436900689847064B18703C
:10783000A36601200023E066236710BD0020FCE75B
:107840009C0F0020A00C0020E018002010B590F83C
:1078500078300446012B19D890F87610082915D8ED
:107860000B4AD25C012A11D890200A4B00FB02334C
:10787000D3F88C0048B1036994F8772000689847E2
:1078800000230120A366E366236710BD0020FCE708
:107890009C0F0020A00C002070477047FEE70000FE
:1078A000F0B508200026104991E81C001D46043A56
:1078B000AC4210D8E21CD21ADD1E22F00302A5420F
:1078C00088BF00221344CA689A4209D8013801F1DE
:1078D0001001E9D1F0BD52F8047F45F8047BE7E7D9
:1078E00043F8046BF0E700BF5C9C000838B5012347
:1078F0000025074C2370656000F0CAFA0549064868
:1079000000F030F90223237085F3118838BD00BFE1
:10791000701B0020DC9C0008781B002072B603223C
:10792000024BD865024B1A70FEE700BF781B00209F
:10793000701B002000F054B8EFF3118020B9EFF372
:107940000583302282F31188704710B530B9EFF308
:107950000584C4F3080414B180F3118810BD00F04D
:10796000F3F884F31188F9E7034A516853685B1A06
:107970009842FBD8704700BF001000E010B50A4CD9
:1079800023699A6891420CD85A688160036042600A
:1079900010609A685860521A9A604FF0FF33A361E2
:1079A00010BD1B68891AECE7781B002010B4036136
:1079B000002310BCC2604361FFF7E0BF0368816829
:1079C0009A680A449A60426813605A6000234FF034
:1079D000FF320360014B9A61704700BF781B0020A3
:1079E00070B5124D2A46EB690133EB6152F8103F36
:1079F000934206D030269A68013A9A602C69A368AF
:107A000003B170BD226861680A605160236083F32E
:107A100011882046E3682169984786F311886169D7
:107A20000029EBD02046FFF7A9FFE7E7781B0020ED
:107A300000238268037503691B6899689142FBD231
:107A40005A68036042601060586070470023826883
:107A5000037503691B6899689142FBD85A680360F3
:107A6000426010605860704708B50846302383F3C1
:107A700011880A7D0023052A06D8DFE802F00B05ED
:107A80000503120E826913604FF0FF338361FFF725
:107A9000CFFF002383F3118808BD82699368013307
:107AA00093604268036813605A60EDE7FFF7C0BF58
:107AB000054BD96808751868026853601A6001227E
:107AC0000275D860FAF7BCBB781B002030B50C4BB0
:107AD0000446DD684B1C87B00FD02B466846094A28
